:100000000C9456000C94C7020C9473000C9473006B
:100010000C9473000C9473000C9473000C94730094
:100020000C9473000C9432020C9473000C947300C3
:100030000C9473000C9473000C9473000C94730074
:100040000C9473000C9473000C9473000C94730064
:100050000C9483010C9473000C9473000C94730043
:100060000C9473000C94FC030C9473000C947300B8
:100070000C9473000C94DB020C9473000C947300CA
:100080000C9473000C9473000C9473000C94730024
:100090000C9473000C9473000C9473000C94730014
:1000A0000C9473000C9473000C94730011241FBE05
:1000B000CFEFDAE0DEBFCDBF11E0A0E0B1E0ECE7CA
:1000C000F3E102C005900D92AA32B107D9F721E001
:1000D000AAE2B1E001C01D92AA34B207E1F70E9482
:1000E0001D040C94BC090C940000E1E8F0E0808150
:1000F0008E7F808380818D7F8083808184608083F8
:10010000EFE6F0E080818160808308958F929F9276
:10011000AF92BF92CF92DF92EF92FF9280913C011B
:1001200090913D01449730F484E190E090933D013B
:1001300080933C0140913C0150913D0120910C0184
:1001400030910D01429FC001439F900D529F900D31
:1001500011249093430180934201209142013091F8
:1001600043013695279536952795ABE7B4E10E9474
:10017000C3069695879590934301809342018091A1
:100180004201909143019C01220F331F820F931F64
:10019000880F991F40910A0150910B01849F900193
:1001A000859F300D949F300D11243093470120938B
:1001B00046012091460130914701ADECBCEC0E9414
:1001C000C30696958795969587959695879590936E
:1001D000470180934601609146017091470188EE86
:1001E00093E00E94AF06709349016093480120910B
:1001F0004801309149014CE3429FC001439F900D5B
:10020000112490932D0180932C01609148017091ED
:1002100049018090020190900301A0900401B090E8
:100220000501C0900601D0900701E0900801F09010
:10023000090180E090E00E947305A50194010E94ED
:10024000420623EC35EF48E450E40E944206A70141
:1002500096010E94D20426E636E646E650E40E9465
:10026000420660933E0170933F018093400190935A
:100270004101609148017091490180E090E00E9445
:100280007305A50194010E94420623EC35EF48E472
:1002900050E40E944206A70196010E94D20426E67D
:1002A00036E646E650E40E94420660933E017093B3
:1002B0003F01809340019093410160913E01709114
:1002C0003F0180914001909141010E94BB040E9436
:1002D00044057093300160932F01FF90EF90DF9001
:1002E000CF90BF90AF909F908F900895E4E8F0E09A
:1002F0008081918190933D0180933C011182108215
:100300000E94860008951F920F920FB60F9211243B
:100310001092300110922F0110922D0110922C0199
:10032000109249011092480110924301109242012B
:100330000F900FBE0F901F901895CF93DF93E1ECB5
:10034000F0E080818E7F808380818D7F80838081BB
:10035000846080838081877F8083A0ECB0E08C9173
:1003600082608C93C3ECD0E088818E7F8883888103
:10037000826088838C9180648C938C918F778C932E
:100380008C9180618C938C918F7D8C93A2ECB0E0EA
:100390008C9184608C938C91877F8C938081806119
:1003A000808380818F7D80839FEF9093D10086E949
:1003B0008093CF00E4ECF0E08081836080839093B1
:1003C000D400DF91CF910895E8E6F0E0808181606C
:1003D0008083EBE6F0E080818260808380818460AE
:1003E0008083808188608083E9E6F0E0808181609D
:1003F000808380818D7F8083E89A0895ECE7F0E028
:1004000080818064808380818F7780838081806217
:10041000808380818E7F808380818D7F80838081B7
:100420008B7F80838081877F808380818F7E8083A4
:10043000EBE7F0E080818F7D8083EAE7F0E0808168
:100440008068808380818860808380818E7F8083C4
:1004500080818260808380818460808380818064E9
:10046000808308951F920F920FB60F9211242F933D
:100470003F934F935F936F937F938F939F93AF932C
:10048000BF93EF93FF9383B18E7086958093440161
:1004900020912C0130912D0191E090930001833047
:1004A00049F128F48130C1F0823091F15BC0853090
:1004B00029F008F449C08630C9F154C0E4ECF0E0FA
:1004C00010828BB18F738BB985B18F79806285B9BA
:1004D00080818360808348C0E4ECF0E0108285B1C5
:1004E0008F7985B98BB18F7380648BB9808183607C
:1004F00080833AC0E4ECF0E0108288B18F7388B951
:100500008BB18F7380648BB980818C6080832CC0A9
:10051000E4ECF0E010828BB18F738BB988B18F73EC
:10052000806488B980818C6080831EC0E4ECF0E038
:10053000108285B18F7985B988B18F73806488B94D
:1005400080818063808310C0E4ECF0E0108288B189
:100550008F7388B985B18F79806285B98081806316
:10056000808302C01092C4000E947601FF91EF9137
:10057000BF91AF919F918F917F916F915F914F91BB
:100580003F912F910F900FBE0F901F9018951F92C3
:100590000F920FB60F9211248F93489B04C081E0F5
:1005A0008093010102C0109201018F910F900FBE44
:1005B0000F901F9018951F920F920FB60F92112453
:1005C0008F93EF93FF938091780080934501809102
:1005D00079008A3F18F480933B0103C08AEF80932F
:1005E0003B0180913B018093CF00EAE7F0E08081FE
:1005F00080648083FF91EF918F910F900FBE0F90D9
:100600001F901895009769F020E030E0EFE9FFE0D7
:100610003197F1F700C000002F5F3F4F821793071B
:10062000A9F70895899A85E090E00E9402038998CD
:1006300085E090E00E940203089582E390E00E942A
:1006400002038998289881B38F7381BB81B380633B
:1006500081BB0E94120381B38F7381BB81B380631E
:1006600081BB0E94120381B38F7381BB81B380630E
:1006700081BB0E94120381B38F7281BB8D9A0E944D
:10068000120381B38F7281BB8D9A0E9412038F9ADD
:1006900081B38F7881BB0E94120381B38F7081BBBD
:1006A0000E9412038F9A81B38F7881BB0E9412033C
:1006B00081B38F7081BB0E94120381B38F7181BBA4
:1006C0008C9A0E94120381B38F7081BB0E94120327
:1006D00081B38F7381BB81B3806381BB0E9412039E
:1006E00081B38F7081BB0E94120381B3806F81BB85
:1006F0000E9412030895CF93C82F289A882314F4D8
:100700008F9A01C08F98C6FF02C08E9A01C08E9842
:10071000C5FF02C08D9A01C08D98C4FF02C08C9A9B
:1007200001C08C980E94120381E090E00E940203B5
:10073000C3FF02C08F9A01C08F98C2FF02C08E9A79
:1007400001C08E98C1FF02C08D9A01C08D98C0FF74
:1007500002C08C9A01C08C980E94120381E090E044
:100760000E940203CF910895CF93C82F2898882321
:1007700014F48F9A01C08F98C6FF02C08E9A01C0F0
:100780008E98C5FF02C08D9A01C08D98C4FF02C02B
:100790008C9A01C08C980E94120381E090E00E9424
:1007A0000203C3FF02C08F9A01C08F98C2FF02C02C
:1007B0008E9A01C08E98C1FF02C08D9A01C08D989B
:1007C000C0FF02C08C9A01C08C980E94120381E085
:1007D00090E00E940203CF910895CF93DF93EC0144
:1007E0008881882331F021960E947B0389918111B1
:1007F000FBCFDF91CF9108951F920F920FB60F920A
:1008000011248F93EF93FF93E8ECF0E0808188232D
:10081000ECF78091CE0080932E01853609F428985C
:1008200080912E01813609F4289AFF91EF918F91E2
:100830000F900FBE0F901F901895E1E6F0E080E852
:100840008083108285B7806885BF85B7806885BF43
:100850003F9A3E9A269A259A579A569A2198229814
:100860002398299A2A9A2B9A5098589A24982C9A25
:100870006E9A8EB186608EB98098209A819A879AF6
:10088000869A859A849A0E94E4010E949D010E94A2
:10089000FE010E9475000E941D038CE00E94B403BB
:1008A0008EB1897F8EB9789480912A0190912B0125
:1008B000019690932B0180932A018FE99FE0019785
:1008C000F1F700C0000080912A0190912B01883E31
:1008D000934054F70EE011E0C1E3D1E080912C0188
:1008E00090912D019F938F931F930F93DF93CF933D
:1008F0000E94D20680E80E94B40381E191E00E9448
:10090000ED038AE80E94B403CE010E94ED038FE854
:100910000E94B4038CE191E00E94ED0380912F01CD
:10092000909130019F938F931F930F93DF93CF93F9
:100930000E94D20680EC0E94B40380E291E00E9403
:10094000ED038AEC0E94B403CE010E94ED038FEC0C
:100950000E94B40385E291E00E94ED0310922B0106
:1009600010922A018DB79EB70C960FB6F8949EBFD1
:100970000FBE8DBFB3CF0E94230690F09F3748F47F
:10098000911116F40C943C0660E070E080E89FE35F
:10099000089526F01B16611D711D811D0C94B6056E
:1009A0000C94D1050E94E6040C94F0050E94E90520
:1009B00058F00E94E20540F029F45F3F29F00C94C2
:1009C000B00551110C943C060C94DF050E94010601
:1009D00068F39923B1F3552391F3951B550BBB276E
:1009E000AA2762177307840738F09F5F5F4F220FB3
:1009F000331F441FAA1FA9F335D00E2E3AF0E0E8AA
:100A000032D091505040E695001CCAF72BD0FE2FF3
:100A100029D0660F771F881FBB1F26173707480787
:100A2000AB07B0E809F0BB0B802DBF01FF2793583F
:100A30005F4F3AF09E3F510578F00C94B0050C944E
:100A40003C065F3FE4F3983ED4F38695779567952F
:100A5000B795F7959F5FC9F7880F911D9695879574
:100A600097F90895E1E0660F771F881FBB1F621793
:100A700073078407BA0720F0621B730B840BBA0B51
:100A8000EE1F88F7E09508950E94090688F09F57A9
:100A900098F0B92F9927B751B0F0E1F0660F771FA2
:100AA000881F991F1AF0BA95C9F714C0B13091F098
:100AB0000E943B06B1E008950C943B06672F782F07
:100AC0008827B85F39F0B93FCCF38695779567955D
:100AD000B395D9F73EF490958095709561957F4FC9
:100AE0008F4F9F4F0895E89409C097FB3EF490956F
:100AF0008095709561957F4F8F4F9F4F9923A9F0F7
:100B0000F92F96E9BB279395F69587957795679585
:100B1000B795F111F8CFFAF4BB0F11F460FF1BC0C9
:100B20006F5F7F4F8F4F9F4F16C0882311F096E95C
:100B300011C0772321F09EE8872F762F05C066230A
:100B400071F096E8862F70E060E02AF09A95660FC3
:100B5000771F881FDAF7880F9695879597F908957C
:100B600097F99F6780E870E060E00895882371F44A
:100B7000772321F09850872B762F07C0662311F436
:100B800099270DC09051862B70E060E02AF09A956D
:100B9000660F771F881FDAF7880F9695879597F964
:100BA00008959F3F31F0915020F487957795679590
:100BB000B795880F911D9695879597F908959FEFA2
:100BC00080EC089500240A941616170618060906E4
:100BD000089500240A9412161306140605060895B3
:100BE000092E0394000C11F4882352F0BB0F40F43B
:100BF000BF2B11F460FF04C06F5F7F4F8F4F9F4F7B
:100C0000089557FD9058440F551F59F05F3F71F0FC
:100C10004795880F97FB991F61F09F3F79F0879563
:100C20000895121613061406551FF2CF4695F1DFEC
:100C300008C0161617061806991FF1CF869571057C
:100C40006105089408950E940906A0F0BEE7B9174F
:100C500088F4BB279F3860F41616B11D672F782FD4
:100C60008827985FF7CF869577956795B11D9395FF
:100C70009639C8F30895E894BB2766277727CB01F8
:100C800097F908950E9455060C94F0050E94E2051C
:100C900038F00E94E90520F0952311F00C94B0057E
:100CA0000C94DF0511240C943C060E94010670F39D
:100CB000959FC1F3950F50E0551F629FF001729F01
:100CC000BB27F00DB11D639FAA27F00DB11DAA1F10
:100CD000649F6627B00DA11D661F829F2227B00D5D
:100CE000A11D621F739FB00DA11D621F839FA00DE8
:100CF000611D221F749F3327A00D611D231F849F38
:100D0000600D211D822F762F6A2F11249F5750408E
:100D10009AF0F1F088234AF0EE0FFF1FBB1F661F09
:100D2000771F881F91505040A9F79E3F510580F0D2
:100D30000C94B0050C943C065F3FE4F3983ED4F36A
:100D4000869577956795B795F795E7959F5FC1F776
:100D5000FE2B880F911D9695879597F90895AA1BEC
:100D6000BB1B51E107C0AA1FBB1FA617B70710F096
:100D7000A61BB70B881F991F5A95A9F780959095C8
:100D8000BC01CD010895A29FB001B39FC001A39FF4
:100D9000700D811D1124911DB29F700D811D1124B4
:100DA000911D0895AEE0B0E0E8EDF6E00C949309F3
:100DB0000D891E8986E08C831A8309838FEF9FE754
:100DC0009E838D83AE01475E5F4F6F89788DCE0124
:100DD00001960E94F406EF81F885E00FF11F108262
:100DE0002E96E4E00C94AF09ABE0B0E0EAEFF6E059
:100DF0000C9485096C017B018A01FC011782168223
:100E0000838181FFCCC1CE0101963C01F601938123
:100E1000F70193FD859193FF81917F01882309F468
:100E2000BAC1853239F493FD859193FF81917F0199
:100E3000853229F4B60190E00E94EB08E7CF912CAF
:100E4000212C312CFFE1F315D8F08B3279F038F4F6
:100E5000803279F08332A1F4232D20611DC08D32C0
:100E600061F0803369F4232D216016C0832D8260E8
:100E7000382EE32DE4603E2E2AC0F32DF8601DC00D
:100E800037FC2DC020ED280F2A3040F08E32B9F407
:100E900036FC81C1232D2064322E19C036FE06C0D7
:100EA0008AE0989E200D1124922E11C0EAE02E9E19
:100EB000200D1124222EF32DF0623F2E08C08C3617
:100EC00021F4832D8068382E02C0883641F4F70162
:100ED00093FD859193FF81917F018111B3CF982F6D
:100EE0009F7D9554933028F40C5F1F4F9FE39983A7
:100EF0000DC0833631F0833771F0833509F059C066
:100F000021C0F801808189830E5F1F4F882483945C
:100F1000912C530113C02801F2E04F0E511CF8012F
:100F2000A080B18036FE03C0692D70E002C06FEF73
:100F30007FEFC5010E94E0084C018201F32DFF778D
:100F40003F2E16C0280122E0420E511CF801A0805D
:100F5000B18036FE03C0692D70E002C06FEF7FEFF5
:100F6000C5010E94D5084C01F32DF0683F2E820187
:100F700033FC1BC0822D90E088169906B0F4B601B0
:100F800080E290E00E94EB082A94F4CFF50137FC50
:100F9000859137FE81915F01B60190E00E94EB08D8
:100FA00021102A9421E0821A91088114910471F78A
:100FB000E8C0843611F0893641F5F80137FE07C0E4
:100FC00060817181828193810C5F1F4F08C06081B5
:100FD0007181072E000C880B990B0E5F1F4FF32DAC
:100FE000FF763F2E97FF09C090958095709561958B
:100FF0007F4F8F4F9F4FF0683F2E2AE030E0A301D4
:101000000E942709882E861845C0853731F4232D84
:101010002F7EB22E2AE030E025C0932D997FB92E85
:101020008F36C1F018F4883579F0B5C0803719F0E3
:10103000883721F0B0C0E92FE061BE2EB4FE0DC0AC
:10104000FB2DF460BF2E09C034FE0AC0292F266094
:10105000B22E06C028E030E005C020E130E002C03A
:1010600020E132E0F801B7FE07C060817181828122
:1010700093810C5F1F4F06C06081718180E090E01A
:101080000E5F1F4FA3010E942709882E8618FB2D93
:10109000FF773F2E36FE0DC0232D2E7FA22E891402
:1010A00058F434FE0BC032FC09C0832D8E7EA82E6E
:1010B00005C0B82CA32C03C0B82C01C0B92CA4FEC9
:1010C0000FC0FE01E80DF11D8081803321F49A2DBF
:1010D000997EA92E09C0A2FE06C0B394B39404C0A1
:1010E0008A2D867809F0B394A3FC11C0A0FE06C037
:1010F000B21488F4280C922C9B180EC0B21460F421
:10110000B60180E290E00E94EB08B394F7CFB214EE
:1011100018F42B1802C0982C212CA4FE10C0B60184
:1011200080E390E00E94EB08A2FE17C0A1FC03C080
:1011300088E790E002C088E590E0B6010CC08A2DF7
:10114000867859F0A1FE02C08BE201C080E2A7FCC4
:101150008DE2B60190E00E94EB08891438F4B601E4
:1011600080E390E00E94EB089A94F7CF8A94F30111
:10117000E80DF11D8081B60190E00E94EB0881101E
:10118000F5CF222009F442CEB60180E290E00E9421
:10119000EB082A94F6CFF6018681978102C08FEF83
:1011A0009FEF2B96E2E10C94A109FC0105906150A0
:1011B00070400110D8F7809590958E0F9F1F08956D
:1011C000FC016150704001900110D8F78095909516
:1011D0008E0F9F1F08950F931F93CF93DF93FB01F3
:1011E000238121FD03C08FEF9FEF2CC022FF16C08B
:1011F00046815781248135814217530744F4A081E9
:10120000B1819D012F5F3F4F318320838C932681D5
:1012100037812F5F3F4F3783268314C08B01EC014A
:10122000FB010084F185E02D0995892BE1F6D801B9
:1012300016968D919C911797019617969C938E9375
:101240001697CE01DF91CF911F910F910895FA016A
:10125000AA27283051F1203181F1E8946F936E7FF5
:101260006E5F7F4F8F4F9F4FAF4FB1E03ED0B4E0E6
:101270003CD0670F781F891F9A1FA11D680F791F27
:101280008A1F911DA11D6A0F711D811D911DA11D38
:1012900020D009F468943F912AE0269F1124301948
:1012A000305D3193DEF6CF010895462F4770405DE3
:1012B0004193B3E00FD0C9F7F6CF462F4F70405D92
:1012C0004A3318F0495D31FD4052419302D0A9F7ED
:1012D000EACFB4E0A6959795879577956795BA95E7
:1012E000C9F700976105710508959B01AC010A2EAD
:1012F00006945795479537952795BA95C9F7620F84
:10130000731F841F951FA01D08952F923F924F9227
:101310005F926F927F928F929F92AF92BF92CF9285
:10132000DF92EF92FF920F931F93CF93DF93CDB78E
:10133000DEB7CA1BDB0B0FB6F894DEBF0FBECDBF06
:1013400009942A88398848885F846E847D848C84D7
:101350009B84AA84B984C884DF80EE80FD800C81E0
:101360001B81AA81B981CE0FD11D0FB6F894DEBFC3
:0C1370000FBECDBFED010895F894FFCF33
:10137C000101CDCC4C3E0000803F030040002564B1
:10138C0000447265687A61686C3A2000552F6D00D4
:0A139C00552F733A006B6D2F6800A7
:00000001FF
