:100000000C9456000C9472020C9473000C947300C0
:100010000C9473000C9473000C9473000C94730094
:100020000C9473000C947C010C9473000C9473007A
:100030000C9473000C9473000C9473000C94730074
:100040000C9473000C9473000C9473000C94730064
:100050000C94B1000C9473000C9473000C94730016
:100060000C9473000C94A7030C9473000C9473000D
:100070000C9473000C9486020C9473000C9473001F
:100080000C9473000C9473000C9473000C94730024
:100090000C9473000C9473000C9473000C94730014
:1000A0000C9473000C9473000C94730011241FBE05
:1000B000CFEFDAE0DEBFCDBF11E0A0E0B1E0EEEDC2
:1000C000FEE002C005900D92A632B107D9F721E0FB
:1000D000A6E2B1E001C01D92A434B207E1F70E948C
:1000E000C8030C946D070C940000E1E8F0E08081F7
:1000F0008E7F808380818D7F8083808184608083F8
:10010000EFE6F0E0808181608083089580913E0178
:1001100090913F019C01220F331F820F931F880F84
:10012000991F4091020150910301849F9001859F86
:10013000300D949F300D11243695279536952795CF
:10014000ABE7B4E10E94740496958795A0E0B0E017
:100150008093400190934101A0934201B0934301E9
:1001600008951F920F920FB60F9211242F933F9371
:100170004F935F936F937F938F939F9388EE93E05A
:1001800090932C0180932B0123E630E030932901DA
:100190002093280140ED57E060E070E0409340017B
:1001A00050934101609342017093430190933F014A
:1001B00080933E019F918F917F916F915F914F91BD
:1001C0003F912F910F900FBE0F901F901895CF93D6
:1001D000DF93E1ECF0E080818E7F808380818D7FF2
:1001E00080838081846080838081877F8083A0EC8E
:1001F000B0E08C9182608C93C3ECD0E088818E7FDC
:1002000088838881826088838C9180648C938C91B0
:100210008F778C938C9180618C938C918F7D8C9354
:10022000A2ECB0E08C9184608C938C91877F8C934E
:1002300080818061808380818F7D80839FEF909318
:10024000D10086E98093CF00E4ECF0E08081836008
:1002500080839093D400DF91CF910895E8E6F0E099
:10026000808181608083EBE6F0E080818260808322
:10027000808184608083808188608083E9E6F0E00B
:1002800080818160808380818D7F8083E89A08955A
:10029000ECE7F0E080818064808380818F778083C9
:1002A00080818062808380818E7F808380818D7F4A
:1002B000808380818B7F80838081877F8083808122
:1002C0008F7E8083EBE7F0E080818F7D8083EAE79B
:1002D000F0E0808180688083808188608083808175
:1002E0008E7F808380818260808380818460808330
:1002F00080818064808308951F920F920FB60F92C1
:1003000011242F933F938F939F93EF93FF9383B188
:100310008E70869580933C012091280130912901AF
:100320002536310520F490910101909300019091C0
:100330000001992309F466C0833049F128F4813023
:10034000C1F0823091F15BC0853029F008F449C0DA
:100350008630C9F154C0E4ECF0E010828BB18F73A9
:100360008BB985B18F79806285B980818360808304
:10037000AEC0E4ECF0E0108285B18F7985B98BB125
:100380008F7380648BB9808183608083A0C0E4EC2C
:10039000F0E0108288B18F7388B98BB18F7380645D
:1003A0008BB980818C60808392C0E4ECF0E0108295
:1003B0008BB18F738BB988B18F73806488B980815A
:1003C0008C60808384C0E4ECF0E0108285B18F798A
:1003D00085B988B18F73806488B980818063808398
:1003E00076C0E4ECF0E0108288B18F7388B985B1F3
:1003F0008F79806285B980818063808368C0109224
:10040000C40065C0833049F128F48130C1F08230E6
:1004100091F15BC0853029F008F449C08630C9F1FC
:1004200054C0E4ECF0E010828BB18F738BB988B1CB
:100430008F73806488B980818C60808348C0E4ECCD
:10044000F0E0108285B18F7985B988B18F738064AF
:1004500088B98081806380833AC0E4ECF0E0108248
:1004600088B18F7388B985B18F79806285B98081B1
:10047000806380832CC0E4ECF0E010828BB18F733A
:100480008BB985B18F79806285B9808183608083E3
:100490001EC0E4ECF0E0108285B18F7985B98BB194
:1004A0008F7380648BB980818360808310C0E4EC9B
:1004B000F0E0108288B18F7388B98BB18F7380643C
:1004C0008BB980818C60808302C01092C400FF9140
:1004D000EF919F918F913F912F910F900FBE0F90B1
:1004E0001F9018951F920F920FB60F9211248F93A1
:1004F000489B04C081E08093010102C01092010179
:100500008F910F900FBE0F901F9018951F920F9212
:100510000FB60F9211248F93EF93FF938091780081
:1005200080933D01809179008A3F18F480933701D0
:1005300003C08AEF80933701809137018093CF0009
:10054000EAE7F0E0808180648083FF91EF918F91F2
:100550000F900FBE0F901F901895009769F020E044
:1005600030E0EFE9FFE03197F1F700C000002F5FC6
:100570003F4F82179307A9F70895899A85E090E085
:100580000E94AD02899885E090E00E94AD02089536
:1005900082E390E00E94AD028998289881B38F731E
:1005A00081BB81B3806381BB0E94BD0281B38F7325
:1005B00081BB81B3806381BB0E94BD0281B38F7315
:1005C00081BB81B3806381BB0E94BD0281B38F7206
:1005D00081BB8D9A0E94BD0281B38F7281BB8D9ABF
:1005E0000E94BD028F9A81B38F7881BB0E94BD02A9
:1005F00081B38F7081BB0E94BD028F9A81B38F78C7
:1006000081BB0E94BD0281B38F7081BB0E94BD027D
:1006100081B38F7181BB8C9A0E94BD0281B38F70B0
:1006200081BB0E94BD0281B38F7381BB81B38063A4
:1006300081BB0E94BD0281B38F7081BB0E94BD024D
:1006400081B3806F81BB0E94BD020895CF93C82FF4
:10065000289A882314F48F9A01C08F98C6FF02C08D
:100660008E9A01C08E98C5FF02C08D9A01C08D98E8
:10067000C4FF02C08C9A01C08C980E94BD0281E028
:1006800090E00E94AD02C3FF02C08F9A01C08F9814
:10069000C2FF02C08E9A01C08E98C1FF02C08D9A1F
:1006A00001C08D98C0FF02C08C9A01C08C980E9436
:1006B000BD0281E090E00E94AD02CF910895CF93FA
:1006C000C82F2898882314F48F9A01C08F98C6FFEA
:1006D00002C08E9A01C08E98C5FF02C08D9A01C0DB
:1006E0008D98C4FF02C08C9A01C08C980E94BD02F4
:1006F00081E090E00E94AD02C3FF02C08F9A01C06A
:100700008F98C2FF02C08E9A01C08E98C1FF02C0AE
:100710008D9A01C08D98C0FF02C08C9A01C08C9840
:100720000E94BD0281E090E00E94AD02CF91089549
:10073000CF93DF93EC018881882331F021960E94CA
:10074000260389918111FBCFDF91CF9108951F92EC
:100750000F920FB60F9211248F93EF93FF93E8EC53
:10076000F0E080818823ECF78091CE0080932A010D
:10077000853609F4289880912A01813609F4289A4F
:10078000FF91EF918F910F900FBE0F901F901895D2
:10079000E1E6F0E080E88083108285B7806885BF5D
:1007A00085B7806885BF3F9A3E9A269A259A579AC0
:1007B000569A219822982398299A2A9A2B9A5098E7
:1007C000589A24982C9A6E9A8EB186608EB9809829
:1007D000209A819A879A869A859A849A0E942E01F5
:1007E0000E94E7000E9448010E9475000E94C80212
:1007F0008CE00E945F038EB1897F8EB978940E944D
:1008000086008091260190912701019690932701FF
:10081000809326018FE99FE00197F1F700C0000067
:100820008091260190912701883E934044F70F2E36
:10083000F4E0EF2EF1E0FF2EF02DCDE2D1E006E165
:1008400011E080913F018F9380913E018F93FF9241
:10085000EF92DF93CF930E94830480E80E945F03AE
:1008600087E091E00E9498038AE80E945F03CE012E
:100870000E9498038FE80E945F0382E191E00E944A
:100880009803809143018F93809142018F938091CF
:1008900041018F93809140018F931F930F93DF93BA
:1008A000CF930E94830480EC0E945F038AE191E071
:1008B0000E9498038AEC0E945F03CE010E94980375
:1008C0008FEC0E945F0381E291E00E9498031092F6
:1008D0002701109226018DB79EB70E960FB6F89499
:1008E0009EBF0FBE8DBFADCFA29FB001B39FC00111
:1008F000A39F700D811D1124911DB29F700D811D4C
:100900001124911D0895AEE0B0E0E9E8F4E00C9404
:1009100044070D891E8986E08C831A8309838FEF33
:100920009FE79E838D83AE01475E5F4F6F89788D11
:10093000CE0101960E94A504EF81F885E00FF11F1A
:1009400010822E96E4E00C946007ABE0B0E0EBEA96
:10095000F4E00C9436076C017B018A01FC011782DC
:100960001682838181FFCCC1CE0101963C01F60144
:100970009381F70193FD859193FF81917F018823F6
:1009800009F4BAC1853239F493FD859193FF8191C1
:100990007F01853229F4B60190E00E949C06E7CFE2
:1009A000912C212C312CFFE1F315D8F08B3279F00A
:1009B00038F4803279F08332A1F4232D20611DC0F8
:1009C0008D3261F0803369F4232D216016C0832DB0
:1009D0008260382EE32DE4603E2E2AC0F32DF860AD
:1009E0001DC037FC2DC020ED280F2A3040F08E327C
:1009F000B9F436FC81C1232D2064322E19C036FE95
:100A000006C08AE0989E200D1124922E11C0EAE0C3
:100A10002E9E200D1124222EF32DF0623F2E08C0B1
:100A20008C3621F4832D8068382E02C0883641F43C
:100A3000F70193FD859193FF81917F018111B3CFE0
:100A4000982F9F7D9554933028F40C5F1F4F9FE3A0
:100A500099830DC0833631F0833771F0833509F007
:100A600059C021C0F801808189830E5F1F4F8824FF
:100A70008394912C530113C02801F2E04F0E511CB6
:100A8000F801A080B18036FE03C0692D70E002C07D
:100A90006FEF7FEFC5010E9491064C018201F32D9B
:100AA000FF773F2E16C0280122E0420E511CF801AC
:100AB000A080B18036FE03C0692D70E002C06FEFE8
:100AC0007FEFC5010E9486064C01F32DF0683F2E92
:100AD000820133FC1BC0822D90E088169906B0F489
:100AE000B60180E290E00E949C062A94F4CFF501C2
:100AF00037FC859137FE81915F01B60190E00E943D
:100B00009C0621102A9421E0821A910881149104F4
:100B100071F7E8C0843611F0893641F5F80137FEE7
:100B200007C060817181828193810C5F1F4F08C073
:100B300060817181072E000C880B990B0E5F1F4F8F
:100B4000F32DFF763F2E97FF09C090958095709505
:100B500061957F4F8F4F9F4FF0683F2E2AE030E026
:100B6000A3010E94D806882E861845C0853731F427
:100B7000232D2F7EB22E2AE030E025C0932D997FC1
:100B8000B92E8F36C1F018F4883579F0B5C08037AA
:100B900019F0883721F0B0C0E92FE061BE2EB4FE15
:100BA0000DC0FB2DF460BF2E09C034FE0AC0292FF2
:100BB0002660B22E06C028E030E005C020E130E01B
:100BC00002C020E132E0F801B7FE07C06081718108
:100BD000828193810C5F1F4F06C06081718180E02C
:100BE00090E00E5F1F4FA3010E94D806882E861842
:100BF000FB2DFF773F2E36FE0DC0232D2E7FA22E1C
:100C0000891458F434FE0BC032FC09C0832D8E7E4B
:100C1000A82E05C0B82CA32C03C0B82C01C0B92C39
:100C2000A4FE0FC0FE01E80DF11D8081803321F488
:100C30009A2D997EA92E09C0A2FE06C0B394B39442
:100C400004C08A2D867809F0B394A3FC11C0A0FEDD
:100C500006C0B21488F4280C922C9B180EC0B21453
:100C600060F4B60180E290E00E949C06B394F7CF56
:100C7000B21418F42B1802C0982C212CA4FE10C01A
:100C8000B60180E390E00E949C06A2FE17C0A1FC82
:100C900003C088E790E002C088E590E0B6010CC090
:100CA0008A2D867859F0A1FE02C08BE201C080E255
:100CB000A7FC8DE2B60190E00E949C06891438F4EE
:100CC000B60180E390E00E949C069A94F7CF8A9444
:100CD000F301E80DF11D8081B60190E00E949C06B1
:100CE0008110F5CF222009F442CEB60180E290E0D7
:100CF0000E949C062A94F6CFF6018681978102C055
:100D00008FEF9FEF2B96E2E10C945207FC010590C8
:100D1000615070400110D8F7809590958E0F9F1FFD
:100D20000895FC016150704001900110D8F7809542
:100D300090958E0F9F1F08950F931F93CF93DF936E
:100D4000FB01238121FD03C08FEF9FEF2CC022FF09
:100D500016C046815781248135814217530744F4D8
:100D6000A081B1819D012F5F3F4F318320838C9300
:100D7000268137812F5F3F4F3783268314C08B0135
:100D8000EC01FB010084F185E02D0995892BE1F64A
:100D9000D80116968D919C911797019617969C9362
:100DA0008E931697CE01DF91CF911F910F910895E9
:100DB000FA01AA27283051F1203181F1E8946F938C
:100DC0006E7F6E5F7F4F8F4F9F4FAF4FB1E03ED032
:100DD000B4E03CD0670F781F891F9A1FA11D680FD0
:100DE000791F8A1F911DA11D6A0F711D811D911D03
:100DF000A11D20D009F468943F912AE0269F112478
:100E00003019305D3193DEF6CF010895462F4770DB
:100E1000405D4193B3E00FD0C9F7F6CF462F4F7036
:100E2000405D4A3318F0495D31FD4052419302D094
:100E3000A9F7EACFB4E0A69597958795779567953A
:100E4000BA95C9F700976105710508959B01AC013A
:100E50000A2E06945795479537952795BA95C9F761
:100E6000620F731F841F951FA01D08952F923F923C
:100E70004F925F926F927F928F929F92AF92BF92AA
:100E8000CF92DF92EF92FF920F931F93CF93DF9356
:100E9000CDB7DEB7CA1BDB0B0FB6F894DEBF0FBEB3
:100EA000CDBF09942A88398848885F846E847D8400
:100EB0008C849B84AA84B984C884DF80EE80FD8002
:100EC0000C811B81AA81B981CE0FD11D0FB6F89478
:0E0ED000DEBF0FBECDBFED010895F894FFCF39
:100EDE0001011000256400447265687A61686C3AFD
:100EEE002000552F6D00256C640053706565643AC3
:060EFE00006B6D2F68007F
:00000001FF
