:100000000C9456000C9441030C9473000C947300F0
:100010000C9473000C9473000C9473000C94730094
:100020000C9473000C9438020C9473000C947300BD
:100030000C9473000C9473000C9473000C94730074
:100040000C9473000C9473000C9473000C94730064
:100050000C9481010C9473000C9473000C94730045
:100060000C9473000C9476040C9473000C9473003D
:100070000C9473000C9455030C9473000C9473004F
:100080000C9473000C9473000C9473000C94730024
:100090000C9473000C9473000C9473000C94730014
:1000A0000C9473000C9473000C94730011241FBE05
:1000B000CFEFDAE0DEBFCDBF11E0A0E0B1E0EAE7CC
:1000C000F4E102C005900D92AA32B107D9F721E000
:1000D000AAE2B1E001C01D92AC34B207E1F70E9480
:1000E00099040C943B0A0C940000E1E8F0E0808154
:1000F0008E7F808380818D7F8083808184608083F8
:10010000EFE6F0E08081816080830895E4E8F0E02C
:100110008081918190933E0180933D0111821082F4
:1001200008958F929F92AF92BF92CF92DF92EF92FB
:10013000FF9280913D0190913E01449730F484E11B
:1001400090E090933E0180933D0140913D0150919C
:100150003E0120910C0130910D01429FC001439F4F
:10016000900D529F900D1124909344018093430170
:100170002091430130914401369527953695279576
:10018000ABE7B4E10E9442079695879590934401AE
:100190008093430180914301909144019C01220F7F
:1001A000331F820F931F880F991F40910A015091AE
:1001B0000B01849F9001859F300D949F300D112479
:1001C0003093490120934801209148013091490121
:1001D000ADECBCEC0E944207969587959695879565
:1001E00096958795909349018093480160914801C5
:1001F0007091490188EE93E00E942E0770934B01A5
:1002000060934A0120914A0130914B014CE3429F97
:10021000C001439F900D112490932D0180932C01D8
:1002200060914A0170914B0180900201909003010E
:10023000A0900401B0900501C0900601D090070184
:10024000E0900801F090090180E090E00E94F20542
:10025000A50194010E94C10623EC35EF48E450E467
:100260000E94C106A70196010E94510526E636E6C6
:1002700046E650E40E94C10660933F01709340013E
:10028000809341019093420160914A0170914B012A
:1002900080E090E00E94F205A50194010E94C10651
:1002A00023EC35EF48E450E40E94C106A701960113
:1002B0000E94510526E636E646E650E40E94C10655
:1002C00060933F01709340018093410190934201FC
:1002D00060913F01709140018091410190914201F4
:1002E0000E943A050E94C3057093300160932F016C
:1002F000FF90EF90DF90CF90BF90AF909F908F9046
:1003000008951F920F920FB60F9211248F9381E0E0
:1003100080933C011092300110922F0110922D0118
:1003200010922C0110924B0110924A01109244013C
:10033000109243018F910F900FBE0F901F90189550
:10034000CF93DF93E1ECF0E080818E7F808380812A
:100350008D7F80838081846080838081877F80839C
:10036000A0ECB0E08C9182608C93C3ECD0E08881EB
:100370008E7F88838881826088838C9180648C934F
:100380008C918F778C938C9180618C938C918F7DE5
:100390008C93A2ECB0E08C9184608C938C91877FDD
:1003A0008C9380818061808380818F7D80839FEFAB
:1003B0009093D10086E98093CF00E4ECF0E0808157
:1003C000836080839093D400DF91CF910895E8E615
:1003D000F0E0808181608083EBE6F0E080818260E4
:1003E0008083808184608083808188608083808135
:1003F00080618083E9E6F0E0808181608083808194
:100400008D7F8083E89A0895ECE7F0E08081806436
:10041000808380818F7780838081806280838081E8
:100420008E7F808380818D7F808380818B7F80839E
:100430008081877F808380818F7E8083EBE7F0E0FF
:1004400080818F7D8083EAE7F0E08081806880830F
:1004500080818860808380818E7F808380818260BC
:10046000808380818460808380818064808308951C
:100470001F920F920FB60F9211242F933F934F9319
:100480005F936F937F938F939F93AF93BF93EF93FC
:10049000FF9383B18E708695809346011C9918C096
:1004A0005C9A81E08093000180914601833009F4D9
:1004B00044C030F4813099F1823009F44CC075C0E9
:1004C0008530F9F008F463C0863009F452C06DC07D
:1004D0005C981092000180914601833009F484C039
:1004E00038F4813009F472C0823009F48BC0B4C092
:1004F000853009F45DC008F4A1C0863009F490C0CD
:10050000ABC0E4ECF0E0108285B18F7985B98BB196
:100510008F7380648BB98081836080839FC0E4EC9B
:10052000F0E0108288B18F7388B98BB18F738064CB
:100530008BB980818C60808391C0E4ECF0E0108204
:100540008BB18F738BB988B18F73806488B98081C8
:100550008C60808383C0E4ECF0E0108285B18F79F9
:1005600085B988B18F73806488B980818063808306
:1005700075C0E4ECF0E0108288B18F7388B985B162
:100580008F79806285B980818063808367C0E4EC65
:10059000F0E010828BB18F738BB985B18F79806257
:1005A00085B980818360808359C01092C40056C091
:1005B000E4ECF0E0108285B18F7985B988B18F7352
:1005C000806488B980818063808348C0E4ECF0E077
:1005D000108288B18F7388B985B18F79806285B9AF
:1005E0008081806380833AC0E4ECF0E010828BB1BC
:1005F0008F738BB985B18F79806285B98081836073
:1006000080832CC0E4ECF0E0108285B18F7985B94D
:100610008BB18F7380648BB98081836080831EC0AF
:10062000E4ECF0E0108288B18F7388B98BB18F73DE
:1006300080648BB980818C60808310C0E4ECF0E032
:1006400010828BB18F738BB988B18F73806488B936
:1006500080818C60808302C01092C4000E9486005A
:10066000FF91EF91BF91AF919F918F917F916F918A
:100670005F914F913F912F910F900FBE0F901F9060
:1006800018951F920F920FB60F9211248F93489BCB
:1006900004C081E08093010102C0109201018F919A
:1006A0000F900FBE0F901F9018951F920F920FB6CC
:1006B0000F9211248F93EF93FF9380917800809392
:1006C0004701809179008A3F18F480933B0103C071
:1006D0008AEF80933B0180913B018093CF00EAE752
:1006E000F0E0808180648083FF91EF918F910F9083
:1006F0000FBE0F901F901895009769F020E030E032
:10070000EFE9FFE03197F1F700C000002F5F3F4FA6
:1007100082179307A9F70895899A85E090E00E94CF
:100720007C03899885E090E00E947C03089582E331
:1007300090E00E947C038998289881B38F7381BBD5
:1007400081B3806381BB0E948C0381B38F7381BBB3
:1007500081B3806381BB0E948C0381B38F7381BBA3
:1007600081B3806381BB0E948C0381B38F7281BB94
:100770008D9A0E948C0381B38F7281BB8D9A0E94E7
:100780008C038F9A81B38F7881BB0E948C0381B3D5
:100790008F7081BB0E948C038F9A81B38F7881BB4D
:1007A0000E948C0381B38F7081BB0E948C0381B344
:1007B0008F7181BB8C9A0E948C0381B38F7081BB37
:1007C0000E948C0381B38F7381BB81B3806381BB33
:1007D0000E948C0381B38F7081BB0E948C0381B314
:1007E000806F81BB0E948C030895CF93C82F289AF5
:1007F000882314F48F9A01C08F98C6FF02C08E9A86
:1008000001C08E98C5FF02C08D9A01C08D98C4FFAB
:1008100002C08C9A01C08C980E948C0381E090E009
:100820000E947C03C3FF02C08F9A01C08F98C2FF51
:1008300002C08E9A01C08E98C1FF02C08D9A01C07D
:100840008D98C0FF02C08C9A01C08C980E948C03C6
:1008500081E090E00E947C03CF910895CF93C82F50
:100860002898882314F48F9A01C08F98C6FF02C07D
:100870008E9A01C08E98C5FF02C08D9A01C08D98D6
:10088000C4FF02C08C9A01C08C980E948C0381E046
:1008900090E00E947C03C3FF02C08F9A01C08F9832
:1008A000C2FF02C08E9A01C08E98C1FF02C08D9A0D
:1008B00001C08D98C0FF02C08C9A01C08C980E9424
:1008C0008C0381E090E00E947C03CF910895CF9348
:1008D000DF93EC018881882331F021960E94F50393
:1008E00089918111FBCFDF91CF9108951F920F92D3
:1008F0000FB60F9211248F93EF93FF93E8ECF0E083
:1009000080818823ECF78091CE008093450180910F
:100910002E01853609F4289880912E01813609F43C
:10092000289AFF91EF918F910F900FBE0F901F901B
:100930001895E1E6F0E080E88083108285B7806852
:1009400085BF85B7806885BF3F9A3E9A269A259ACB
:10095000579A569A219822982398299A2A9A2B9A3C
:100960005098589A24982C9A6E9A8EB186608EB9B7
:100970008098209A819A879A869A859A849A549A1E
:100980000E94E7010E94A0010E9404020E947500DB
:100990000E9497038CE00E942E048EB1897F8EB94D
:1009A00078940EE011E0C1E3D1E080912A019091AA
:1009B0002B01019690932B0180932A018FE99FE0F0
:1009C0000197F1F700C0000080912A0190912B015E
:1009D000883E934054F30E94910080912C019091A5
:1009E0002D019F938F931F930F93DF93CF930E94BB
:1009F000510780E80E942E0481E191E00E94670483
:100A00008AE80E942E04CE010E9467048FE80E94AB
:100A10002E048CE191E00E94670480912F01909157
:100A200030019F938F931F930F93DF93CF930E9477
:100A3000510780EC0E942E0480E291E00E9467043E
:100A40008AEC0E942E04CE010E9467048FEC0E9463
:100A50002E0485E291E00E94670410922B0110920F
:100A60002A018DB79EB70C960FB6F8949EBF0FBEA5
:100A70008DBF9BCF0E94A20690F09F3748F4911142
:100A800016F40C94BB0660E070E080E89FE30895E4
:100A900026F01B16611D711D811D0C9435060C94EA
:100AA00050060E9465050C946F060E94680658F077
:100AB0000E94610640F029F45F3F29F00C942F0654
:100AC00051110C94BB060C945E060E94800668F3DC
:100AD0009923B1F3552391F3951B550BBB27AA27F7
:100AE00062177307840738F09F5F5F4F220F331F31
:100AF000441FAA1FA9F335D00E2E3AF0E0E832D0F9
:100B000091505040E695001CCAF72BD0FE2F29D0FB
:100B1000660F771F881FBB1F261737074807AB07CD
:100B2000B0E809F0BB0B802DBF01FF2793585F4F42
:100B30003AF09E3F510578F00C942F060C94BB06BA
:100B40005F3FE4F3983ED4F3869577956795B79524
:100B5000F7959F5FC9F7880F911D9695879597F92F
:100B60000895E1E0660F771F881FBB1F62177307A8
:100B70008407BA0720F0621B730B840BBA0BEE1FBD
:100B800088F7E09508950E94880688F09F5798F0AE
:100B9000B92F9927B751B0F0E1F0660F771F881F82
:100BA000991F1AF0BA95C9F714C0B13091F00E949C
:100BB000BA06B1E008950C94BA06672F782F8827FB
:100BC000B85F39F0B93FCCF3869577956795B395C3
:100BD000D9F73EF490958095709561957F4F8F4F32
:100BE0009F4F0895E89409C097FB3EF49095809537
:100BF000709561957F4F8F4F9F4F9923A9F0F92FE3
:100C000096E9BB279395F695879577956795B79560
:100C1000F111F8CFFAF4BB0F11F460FF1BC06F5F46
:100C20007F4F8F4F9F4F16C0882311F096E911C058
:100C3000772321F09EE8872F762F05C0662371F079
:100C400096E8862F70E060E02AF09A95660F771F8D
:100C5000881FDAF7880F9695879597F9089597F981
:100C60009F6780E870E060E00895882371F477233F
:100C700021F09850872B762F07C0662311F499270F
:100C80000DC09051862B70E060E02AF09A95660FB7
:100C9000771F881FDAF7880F9695879597F908953B
:100CA0009F3F31F0915020F4879577956795B795E0
:100CB000880F911D9695879597F908959FEF80EC81
:100CC000089500240A9416161706180609060895B2
:100CD00000240A9412161306140605060895092E18
:100CE0000394000C11F4882352F0BB0F40F4BF2B87
:100CF00011F460FF04C06F5F7F4F8F4F9F4F0895C7
:100D000057FD9058440F551F59F05F3F71F04795BC
:100D1000880F97FB991F61F09F3F79F087950895A1
:100D2000121613061406551FF2CF4695F1DF08C0C0
:100D3000161617061806991FF1CF869571056105DD
:100D4000089408950E948806A0F0BEE7B91788F4B9
:100D5000BB279F3860F41616B11D672F782F8827A0
:100D6000985FF7CF869577956795B11D93959639DE
:100D7000C8F30895E894BB2766277727CB0197F936
:100D800008950E94D4060C946F060E94610638F004
:100D90000E94680620F0952311F00C942F060C9405
:100DA0005E0611240C94BB060E94800670F3959F8A
:100DB000C1F3950F50E0551F629FF001729FBB2752
:100DC000F00DB11D639FAA27F00DB11DAA1F649FEE
:100DD0006627B00DA11D661F829F2227B00DA11DA1
:100DE000621F739FB00DA11D621F839FA00D611D27
:100DF000221F749F3327A00D611D231F849F600D48
:100E0000211D822F762F6A2F11249F5750409AF070
:100E1000F1F088234AF0EE0FFF1FBB1F661F771FFC
:100E2000881F91505040A9F79E3F510580F00C94C7
:100E30002F060C94BB065F3FE4F3983ED4F38695EF
:100E400077956795B795F795E7959F5FC1F7FE2B67
:100E5000880F911D9695879597F90895AA1BBB1B3E
:100E600051E107C0AA1FBB1FA617B70710F0A61BAA
:100E7000B70B881F991F5A95A9F780959095BC01CB
:100E8000CD010895A29FB001B39FC001A39F700D33
:100E9000811D1124911DB29F700D811D1124911D82
:100EA0000895AEE0B0E0E7E5F7E00C94120A0D8992
:100EB0001E8986E08C831A8309838FEF9FE79E83C8
:100EC0008D83AE01475E5F4F6F89788DCE010196AD
:100ED0000E947307EF81F885E00FF11F10822E96B4
:100EE000E4E00C942E0AABE0B0E0E9E7F7E00C9404
:100EF000040A6C017B018A01FC011782168283813E
:100F000081FFCCC1CE0101963C01F6019381F7012E
:100F100093FD859193FF81917F01882309F4BAC1E4
:100F2000853239F493FD859193FF81917F0185325C
:100F300029F4B60190E00E946A09E7CF912C212C98
:100F4000312CFFE1F315D8F08B3279F038F4803290
:100F500079F08332A1F4232D20611DC08D3261F020
:100F6000803369F4232D216016C0832D8260382ED2
:100F7000E32DE4603E2E2AC0F32DF8601DC037FC3F
:100F80002DC020ED280F2A3040F08E32B9F436FC07
:100F900081C1232D2064322E19C036FE06C08AE09E
:100FA000989E200D1124922E11C0EAE02E9E200D55
:100FB0001124222EF32DF0623F2E08C08C3621F42E
:100FC000832D8068382E02C0883641F4F70193FDE6
:100FD000859193FF81917F018111B3CF982F9F7DE0
:100FE0009554933028F40C5F1F4F9FE399830DC0F5
:100FF000833631F0833771F0833509F059C021C051
:10100000F801808189830E5F1F4F88248394912C7F
:10101000530113C02801F2E04F0E511CF801A080CB
:10102000B18036FE03C0692D70E002C06FEF7FEF24
:10103000C5010E945F094C018201F32DFF773F2E0D
:1010400016C0280122E0420E511CF801A080B18098
:1010500036FE03C0692D70E002C06FEF7FEFC5015F
:101060000E9454094C01F32DF0683F2E820133FC9D
:101070001BC0822D90E088169906B0F4B60180E27C
:1010800090E00E946A092A94F4CFF50137FC85911B
:1010900037FE81915F01B60190E00E946A0921103C
:1010A0002A9421E0821A91088114910471F7E8C012
:1010B000843611F0893641F5F80137FE07C06081AA
:1010C0007181828193810C5F1F4F08C060817181A3
:1010D000072E000C880B990B0E5F1F4FF32DFF7628
:1010E0003F2E97FF09C090958095709561957F4F31
:1010F0008F4F9F4FF0683F2E2AE030E0A3010E94FF
:10110000A609882E861845C0853731F4232D2F7EF9
:10111000B22E2AE030E025C0932D997FB92E8F366C
:10112000C1F018F4883579F0B5C0803719F08837E8
:1011300021F0B0C0E92FE061BE2EB4FE0DC0FB2D42
:10114000F460BF2E09C034FE0AC0292F2660B22EDB
:1011500006C028E030E005C020E130E002C020E118
:1011600032E0F801B7FE07C060817181828193810E
:101170000C5F1F4F06C06081718180E090E00E5FC0
:101180001F4FA3010E94A609882E8618FB2DFF770A
:101190003F2E36FE0DC0232D2E7FA22E891458F42B
:1011A00034FE0BC032FC09C0832D8E7EA82E05C0F4
:1011B000B82CA32C03C0B82C01C0B92CA4FE0FC0BE
:1011C000FE01E80DF11D8081803321F49A2D997E76
:1011D000A92E09C0A2FE06C0B394B39404C08A2D00
:1011E000867809F0B394A3FC11C0A0FE06C0B21427
:1011F00088F4280C922C9B180EC0B21460F4B6012F
:1012000080E290E00E946A09B394F7CFB21418F418
:101210002B1802C0982C212CA4FE10C0B60180E32C
:1012200090E00E946A09A2FE17C0A1FC03C088E7F3
:1012300090E002C088E590E0B6010CC08A2D867867
:1012400059F0A1FE02C08BE201C080E2A7FC8DE252
:10125000B60190E00E946A09891438F4B60180E36F
:1012600090E00E946A099A94F7CF8A94F301E80DFE
:10127000F11D8081B60190E00E946A098110F5CFCE
:10128000222009F442CEB60180E290E00E946A0971
:101290002A94F6CFF6018681978102C08FEF9FEFE7
:1012A0002B96E2E10C94200AFC01059061507040FD
:1012B0000110D8F7809590958E0F9F1F0895FC011F
:1012C0006150704001900110D8F7809590958E0F75
:1012D0009F1F08950F931F93CF93DF93FB012381EB
:1012E00021FD03C08FEF9FEF2CC022FF16C0468167
:1012F0005781248135814217530744F4A081B1817D
:101300009D012F5F3F4F318320838C93268137814E
:101310002F5F3F4F3783268314C08B01EC01FB0105
:101320000084F185E02D0995892BE1F6D801169608
:101330008D919C911797019617969C938E93169773
:10134000CE01DF91CF911F910F910895FA01AA2745
:10135000283051F1203181F1E8946F936E7F6E5FF8
:101360007F4F8F4F9F4FAF4FB1E03ED0B4E03CD0A6
:10137000670F781F891F9A1FA11D680F791F8A1F89
:10138000911DA11D6A0F711D811D911DA11D20D0F0
:1013900009F468943F912AE0269F11243019305DAA
:1013A0003193DEF6CF010895462F4770405D41939B
:1013B000B3E00FD0C9F7F6CF462F4F70405D4A33E8
:1013C00018F0495D31FD4052419302D0A9F7EACFB0
:1013D000B4E0A6959795879577956795BA95C9F7DF
:1013E00000976105710508959B01AC010A2E0694D2
:1013F0005795479537952795BA95C9F7620F731F8B
:10140000841F951FA01D08952F923F924F925F92C7
:101410006F927F928F929F92AF92BF92CF92DF9204
:10142000EF92FF920F931F93CF93DF93CDB7DEB769
:10143000CA1BDB0B0FB6F894DEBF0FBECDBF0994FD
:101440002A88398848885F846E847D848C849B8454
:10145000AA84B984C884DF80EE80FD800C811B8162
:10146000AA81B981CE0FD11D0FB6F894DEBF0FBE91
:0A147000CDBFED010895F894FFCF01
:10147A000101CDCC4C3E0000803F030040002564B2
:10148A0000447265687A61686C3A2000552F6D00D5
:0A149A00552F733A006B6D2F6800A8
:00000001FF
