:100000000C9456000C9454030C9473000C947300DD
:100010000C9473000C9473000C9473000C94730094
:100020000C9473000C942E030C9473000C947300C6
:100030000C9473000C9473000C9473000C94730074
:100040000C9473000C9473000C9473000C94730064
:100050000C9490010C9435050C9473000C9473006F
:100060000C9473000C94FF040C9473000C947300B4
:100070000C9473000C9468030C9473000C9473003C
:100080000C9473000C9473000C9473000C94730024
:100090000C9473000C9473000C9473000C94730014
:1000A0000C9473000C9473000C94730011241FBE05
:1000B000CFEFDAE0DEBFCDBF11E0A0E0B1E0E6E2D5
:1000C000F6E102C005900D92AC32B107D9F721E0FC
:1000D000ACE2B1E001C01D92A835B207E1F70E9481
:1000E00064050C94110B0C940000E1E8F0E08081B1
:1000F0008160808380818260808380818B7F808328
:10010000EFE6F0E0808181608083089510924301E2
:10011000E4E8F0E08081918190934501809344016F
:100120001182108208958F929F92AF92BF92CF92C8
:10013000DF92EF92FF9280914401909145014A979E
:1001400030F489E190E090934501809344018091DF
:10015000440190914501863B954330F086EB95E351
:100160009093450180934401409144015091450191
:1001700020910C0130910D01429FC001439F900DD1
:10018000529F900D112490934E0180934D01209128
:100190004D0130914E013695279536952795ABE761
:1001A000B4E10E9418089695879590934E0180932C
:1001B0004D0180914D0190914E019C01220F331F02
:1001C000820F931F880F991F40910A0150910B01D4
:1001D000849F9001859F300D949F300D11243093A2
:1001E0005201209351012091510130915201ADEC07
:1001F000BCEC0E94180896958795969587959695DC
:1002000087959093520180935101609151017091B3
:10021000520188EE93E00E940408709357016093A6
:10022000560120915601309157014CE3429FC00185
:10023000439F900D1124909332018093310160917E
:100240005601709157018090020190900301A09097
:100250000401B0900501C0900601D0900701E09024
:100260000801F090090180E090E00E94C806A50115
:1002700094010E94970723EC35EF48E450E40E9474
:100280009707A70196010E94270626E636E646E66E
:1002900050E40E9497076093460170934701809352
:1002A000480190934901609156017091570180E097
:1002B00090E00E94C806A50194010E94970723ECD4
:1002C00035EF48E450E40E949707A70196010E9489
:1002D000270626E636E646E650E40E949707609336
:1002E00046017093470180934801909349016091C2
:1002F00046017091470180914801909149010E9407
:1003000010060E9499067093340160933301FF90A8
:10031000EF90DF90CF90BF90AF909F908F90089517
:100320001F920F920FB60F9211248F9381E080934A
:100330004301109234011092330110923201109255
:100340003101109257011092560110924E011092F5
:100350004D018F910F900FBE0F901F901895CF9366
:10036000DF93E1ECF0E080818E7F808380818D7F60
:1003700080838081846080838081877F8083A0ECFC
:10038000B0E08C9182608C93C3ECD0E088818E7F4A
:1003900088838881826088838C9180648C938C911F
:1003A0008F778C938C9180618C938C918F7D8C93C3
:1003B000A2ECB0E08C9184608C938C91877F8C93BD
:1003C00080818F7E808380818F7D80838FEF80937B
:1003D000D10086E98093CF00E4ECF0E08081836077
:1003E000808388E88093D400DF91CF910895E8E678
:1003F000F0E0808181608083EBE6F0E080818260C4
:100400008083808184608083808188608083808114
:1004100080618083E9E6F0E0808181608083808173
:100420008D7F8083E89A0895ECE7F0E08081806416
:10043000808380818F7780838081806280838081C8
:100440008E7F808380818D7F808380818B7F80837E
:100450008081877F808380818F7E8083EBE7F0E0DF
:1004600080818F7D8083EAE7F0E0808180688083EF
:1004700080818860808380818E7F8083808182609C
:1004800080838081846080838081806480830895FC
:1004900083B18E70869580934F011C9918C05C9A29
:1004A00081E08093000180914F01833009F444C0C2
:1004B00030F4813099F1823009F44CC075C0853038
:1004C000F9F008F463C0863009F452C06DC05C983E
:1004D0001092000180914F01833009F484C038F4F8
:1004E000813009F472C0823009F48BC0B4C0853009
:1004F00009F45DC008F4A1C0863009F490C0ABC017
:10050000E4ECF0E0108285B18F7985B98BB18F73FF
:1005100080648BB98081836080830895E4ECF0E08F
:10052000108288B18F7388B98BB18F7380648BB957
:1005300080818C6080830895E4ECF0E010828BB1C0
:100540008F738BB988B18F73806488B980818C6018
:1005500080830895E4ECF0E0108285B18F7985B94D
:1005600088B18F73806488B98081806380830895A7
:10057000E4ECF0E0108288B18F7388B985B18F798F
:10058000806285B98081806380830895E4ECF0E027
:1005900010828BB18F738BB985B18F79806285B9E9
:1005A00080818360808308951092C4000895E4ECF4
:1005B000F0E0108285B18F7985B988B18F7380643E
:1005C00088B98081806380830895E4ECF0E0108234
:1005D00088B18F7388B985B18F79806285B9808140
:1005E000806380830895E4ECF0E010828BB18F7318
:1005F0008BB985B18F79806285B980818360808372
:100600000895E4ECF0E0108285B18F7985B98BB163
:100610008F7380648BB98081836080830895E4EC5C
:10062000F0E0108288B18F7388B98BB18F738064CA
:100630008BB980818C6080830895E4ECF0E01082B7
:100640008BB18F738BB988B18F73806488B98081C7
:100650008C60808308951092C40008951F920F92B9
:100660000FB60F9211242F933F934F935F936F9385
:100670007F938F939F93AF93BF93EF93FF930E94CA
:1006800048020E948600FF91EF91BF91AF919F9128
:100690008F917F916F915F914F913F912F910F902B
:1006A0000FBE0F901F9018951F920F920FB60F92CA
:1006B00011248F93489B04C081E08093010102C004
:1006C000109201018F910F900FBE0F901F901895FF
:1006D0001F920F920FB60F9211248F93EF93FF93F7
:1006E0008091780080935001809179008A3F18F4BE
:1006F0008093420103C08AEF8093420180914201BE
:100700008093CF00EAE7F0E0808180648083FF91EE
:10071000EF918F910F900FBE0F901F90189500973B
:1007200069F020E030E0EFE9FFE03197F1F700C039
:1007300000002F5F3F4F82179307A9F70895899A0A
:1007400085E090E00E948F03899885E090E00E9408
:100750008F03089582E390E00E948F038998289880
:1007600081B38F7381BB81B3806381BB0E949F0380
:1007700081B38F7381BB81B3806381BB0E949F0370
:1007800081B38F7381BB81B3806381BB0E949F0360
:1007900081B38F7281BB8D9A0E949F0381B38F7248
:1007A00081BB8D9A0E949F038F9A81B38F7881BB02
:1007B0000E949F0381B38F7081BB0E949F038F9A19
:1007C00081B38F7881BB0E949F0381B38F7081BBFF
:1007D0000E949F0381B38F7181BB8C9A0E949F03FB
:1007E00081B38F7081BB0E949F0381B38F7381BBE4
:1007F00081B3806381BB0E949F0381B38F7081BBF3
:100800000E949F0381B3806F81BB0E949F03089564
:10081000CF93C82F289A882314F48F9A01C08F98F9
:10082000C6FF02C08E9A01C08E98C5FF02C08D9A85
:1008300001C08D98C4FF02C08C9A01C08C980E94A0
:100840009F0381E090E00E948F03C3FF02C08F9A54
:1008500001C08F98C2FF02C08E9A01C08E98C1FF5E
:1008600002C08D9A01C08D98C0FF02C08C9A01C051
:100870008C980E949F0381E090E00E948F03CF91AB
:100880000895CF93C82F2898882314F48F9A01C015
:100890008F98C6FF02C08E9A01C08E98C5FF02C015
:1008A0008D9A01C08D98C4FF02C08C9A01C08C98AB
:1008B0000E949F0381E090E00E948F03C3FF02C06B
:1008C0008F9A01C08F98C2FF02C08E9A01C08E9885
:1008D000C1FF02C08D9A01C08D98C0FF02C08C9AE2
:1008E00001C08C980E949F0381E090E00E948F03DA
:1008F000CF910895CF93DF93EC018881882331F065
:1009000021960E94080489918111FBCFDF91CF913C
:1009100008951092CD0087E68093CC00E9ECF0E0DA
:10092000808180618083808180688083808188600D
:100930008083EAECF0E080818F7B808380818F77F9
:10094000808380818F7E80838081806280838081AC
:10095000877F8083808182608083808184608083C0
:1009600080818B7F808380818083089584B58F7B95
:1009700084BD84B58F7784BD84B58E7F84BD84B5F6
:100980008D7F84BD85B5877F85BD85B58E7F85BD0F
:1009900085B58D7F85BD85B5846085BD84E687BDC1
:1009A000EEE6F0E08081826080830895AFE3B1E0FD
:1009B0008C91E3E5F1E0808311968C91119781830E
:1009C00012968C9112978283808190E090934B01D4
:1009D00080934A01218180914A0190914B01922B91
:1009E00090934B0180934A01828180934C018C91BA
:1009F0008A3020F09BB180E189278BB908951F923E
:100A00000F920FB60F9211248F93EF93FF93809163
:100A10002F01813011F580912E018530F0F016BC48
:100A200010922E01E8ECF0E080818823ECF78091B1
:100A3000CE0080933F01E8ECF0E080818823ECF762
:100A40008091CE0080934101E8ECF0E08081882322
:100A5000ECF78091CE0080934201FF91EF918F914E
:100A60000F900FBE0F901F9018951F920F920FB608
:100A70000F9211242F933F934F935F936F937F9324
:100A80008F939F93AF93BF93EF93FF9316BC81E037
:100A900080932F0180912E018F5F80932E018330F0
:100AA00011F40E94D604FF91EF91BF91AF919F91F5
:100AB0008F917F916F915F914F913F912F910F9007
:100AC0000FBE0F901F901895E1E6F0E080E880835C
:100AD000108285B7806885BF85B7806885BF3F9ADB
:100AE0003E9A269A259A579A569A219822982398A0
:100AF00029982A982B985098589A24982C9A6E9A4C
:100B00008EB186608EB98098209A819A879A869A4B
:100B1000859A849A5A9A549A0E94F7010E94AF01CA
:100B20000E9414020E9475000E9489040E94B6046B
:100B30000E94AA038CE00E9441040E9448028EB1E8
:100B4000897F8EB978940EE011E0C5E3D1E0809101
:100B50002C0190912D01019690932D0180932C01F1
:100B60008FE99FE00197F1F700C0000080912C0110
:100B700090912D01883E934054F38091430181115F
:100B800002C00E94930080913101909132019F93A5
:100B90008F931F930F93DF93CF930E94270880E8D2
:100BA0000E94410481E191E00E947A048AE80E9457
:100BB0004104CE010E947A048FE80E9441048CE136
:100BC00091E00E947A0480913301909134019F93C7
:100BD0008F931F930F93DF93CF930E94270880EC8E
:100BE0000E94410480E291E00E947A048AEC0E9413
:100BF0004104CE010E947A048FEC0E94410487E2F6
:100C000091E00E947A0410922D0110922C018DB770
:100C10009EB70C960FB6F8949EBF0FBE8DBF97CFB0
:100C20000E94780790F09F3748F4911116F40C94C5
:100C3000910760E070E080E89FE3089526F01B16BE
:100C4000611D711D811D0C940B070C9426070E94D9
:100C50003B060C9445070E943E0758F00E94370758
:100C600040F029F45F3F29F00C94050751110C94D2
:100C700091070C9434070E94560768F39923B1F347
:100C8000552391F3951B550BBB27AA2762177307B2
:100C9000840738F09F5F5F4F220F331F441FAA1F46
:100CA000A9F335D00E2E3AF0E0E832D09150504002
:100CB000E695001CCAF72BD0FE2F29D0660F771FB0
:100CC000881FBB1F261737074807AB07B0E809F096
:100CD000BB0B802DBF01FF2793585F4F3AF09E3F1B
:100CE000510578F00C9405070C9491075F3FE4F3ED
:100CF000983ED4F3869577956795B795F7959F5F5E
:100D0000C9F7880F911D9695879597F90895E1E0A9
:100D1000660F771F881FBB1F621773078407BA0708
:100D200020F0621B730B840BBA0BEE1F88F7E09563
:100D300008950E945E0788F09F5798F0B92F992771
:100D4000B751B0F0E1F0660F771F881F991F1AF0B6
:100D5000BA95C9F714C0B13091F00E949007B1E084
:100D600008950C949007672F782F8827B85F39F083
:100D7000B93FCCF3869577956795B395D9F73EF44F
:100D800090958095709561957F4F8F4F9F4F0895F7
:100D9000E89409C097FB3EF4909580957095619515
:100DA0007F4F8F4F9F4F9923A9F0F92F96E9BB27CB
:100DB0009395F695879577956795B795F111F8CF47
:100DC000FAF4BB0F11F460FF1BC06F5F7F4F8F4FB2
:100DD0009F4F16C0882311F096E911C0772321F0A8
:100DE0009EE8872F762F05C0662371F096E8862F40
:100DF00070E060E02AF09A95660F771F881FDAF797
:100E0000880F9695879597F9089597F99F6780E8D9
:100E100070E060E00895882371F4772321F0985002
:100E2000872B762F07C0662311F499270DC09051A8
:100E3000862B70E060E02AF09A95660F771F881F76
:100E4000DAF7880F9695879597F908959F3F31F0C7
:100E5000915020F4879577956795B795880F911DE8
:100E60009695879597F908959FEF80EC0895002453
:100E70000A941616170618060906089500240A94FF
:100E800012161306140605060895092E0394000C85
:100E900011F4882352F0BB0F40F4BF2B11F460FF14
:100EA00004C06F5F7F4F8F4F9F4F089557FD90583D
:100EB000440F551F59F05F3F71F04795880F97FB1E
:100EC000991F61F09F3F79F08795089512161306D8
:100ED0001406551FF2CF4695F1DF08C01616170607
:100EE0001806991FF1CF869571056105089408953C
:100EF0000E945E07A0F0BEE7B91788F4BB279F38B1
:100F000060F41616B11D672F782F8827985FF7CFEA
:100F1000869577956795B11D93959639C8F3089591
:100F2000E894BB2766277727CB0197F908950E949D
:100F3000AA070C9445070E94370738F00E943E0725
:100F400020F0952311F00C9405070C94340711241C
:100F50000C9491070E94560770F3959FC1F3950F6B
:100F600050E0551F629FF001729FBB27F00DB11D2D
:100F7000639FAA27F00DB11DAA1F649F6627B00DBD
:100F8000A11D661F829F2227B00DA11D621F739FA6
:100F9000B00DA11D621F839FA00D611D221F749FB4
:100FA0003327A00D611D231F849F600D211D822FFB
:100FB000762F6A2F11249F5750409AF0F1F0882322
:100FC0004AF0EE0FFF1FBB1F661F771F881F91504F
:100FD0005040A9F79E3F510580F00C9405070C94F2
:100FE00091075F3FE4F3983ED4F386957795679534
:100FF000B795F795E7959F5FC1F7FE2B880F911D79
:101000009695879597F90895AA1BBB1B51E107C0D8
:10101000AA1FBB1FA617B70710F0A61BB70B881F88
:10102000991F5A95A9F780959095BC01CD01089517
:10103000A29FB001B39FC001A39F700D811D112419
:10104000911DB29F700D811D1124911D0895AEE078
:10105000B0E0EDE2F8E00C94E80A0D891E8986E024
:101060008C831A8309838FEF9FE79E838D83AE0164
:10107000475E5F4F6F89788DCE0101960E944908C7
:10108000EF81F885E00FF11F10822E96E4E00C94BA
:10109000040BABE0B0E0EFE4F8E00C94DA0A6C018A
:1010A0007B018A01FC0117821682838181FFCCC1FA
:1010B000CE0101963C01F6019381F70193FD8591E4
:1010C00093FF81917F01882309F4BAC1853239F4F5
:1010D00093FD859193FF81917F01853229F4B601BB
:1010E00090E00E94400AE7CF912C212C312CFFE1A7
:1010F000F315D8F08B3279F038F4803279F08332FE
:10110000A1F4232D20611DC08D3261F0803369F47C
:10111000232D216016C0832D8260382EE32DE460DC
:101120003E2E2AC0F32DF8601DC037FC2DC020EDE7
:10113000280F2A3040F08E32B9F436FC81C1232DBD
:101140002064322E19C036FE06C08AE0989E200D1B
:101150001124922E11C0EAE02E9E200D1124222E81
:10116000F32DF0623F2E08C08C3621F4832D806869
:10117000382E02C0883641F4F70193FD859193FF24
:1011800081917F018111B3CF982F9F7D955493302A
:1011900028F40C5F1F4F9FE399830DC0833631F015
:1011A000833771F0833509F059C021C0F80180817F
:1011B00089830E5F1F4F88248394912C530113C0A1
:1011C0002801F2E04F0E511CF801A080B18036FEDC
:1011D00003C0692D70E002C06FEF7FEFC5010E9470
:1011E000350A4C018201F32DFF773F2E16C02801EE
:1011F00022E0420E511CF801A080B18036FE03C0EF
:10120000692D70E002C06FEF7FEFC5010E942A0ACE
:101210004C01F32DF0683F2E820133FC1BC0822D60
:1012200090E088169906B0F4B60180E290E00E9442
:10123000400A2A94F4CFF50137FC859137FE81915D
:101240005F01B60190E00E94400A21102A9421E03B
:10125000821A91088114910471F7E8C0843611F064
:10126000893641F5F80137FE07C0608171818281BE
:1012700093810C5F1F4F08C060817181072E000CA5
:10128000880B990B0E5F1F4FF32DFF763F2E97FFB4
:1012900009C090958095709561957F4F8F4F9F4FB6
:1012A000F0683F2E2AE030E0A3010E947C0A882EDD
:1012B000861845C0853731F4232D2F7EB22E2AE0C3
:1012C00030E025C0932D997FB92E8F36C1F018F4E8
:1012D000883579F0B5C0803719F0883721F0B0C073
:1012E000E92FE061BE2EB4FE0DC0FB2DF460BF2ED1
:1012F00009C034FE0AC0292F2660B22E06C028E09D
:1013000030E005C020E130E002C020E132E0F80129
:10131000B7FE07C060817181828193810C5F1F4F8E
:1013200006C06081718180E090E00E5F1F4FA301D5
:101330000E947C0A882E8618FB2DFF773F2E36FEF2
:101340000DC0232D2E7FA22E891458F434FE0BC01D
:1013500032FC09C0832D8E7EA82E05C0B82CA32C8C
:1013600003C0B82C01C0B92CA4FE0FC0FE01E80DCB
:10137000F11D8081803321F49A2D997EA92E09C018
:10138000A2FE06C0B394B39404C08A2D867809F0F7
:10139000B394A3FC11C0A0FE06C0B21488F4280CBC
:1013A000922C9B180EC0B21460F4B60180E290E05B
:1013B0000E94400AB394F7CFB21418F42B1802C05D
:1013C000982C212CA4FE10C0B60180E390E00E946E
:1013D000400AA2FE17C0A1FC03C088E790E002C04B
:1013E00088E590E0B6010CC08A2D867859F0A1FE00
:1013F00002C08BE201C080E2A7FC8DE2B60190E062
:101400000E94400A891438F4B60180E390E00E94FB
:10141000400A9A94F7CF8A94F301E80DF11D808178
:10142000B60190E00E94400A8110F5CF222009F415
:1014300042CEB60180E290E00E94400A2A94F6CFA4
:10144000F6018681978102C08FEF9FEF2B96E2E134
:101450000C94F60AFC010590615070400110D8F719
:10146000809590958E0F9F1F0895FC0161507040EC
:1014700001900110D8F7809590958E0F9F1F0895C9
:101480000F931F93CF93DF93FB01238121FD03C0B3
:101490008FEF9FEF2CC022FF16C046815781248119
:1014A00035814217530744F4A081B1819D012F5F1C
:1014B0003F4F318320838C93268137812F5F3F4FAD
:1014C0003783268314C08B01EC01FB010084F18576
:1014D000E02D0995892BE1F6D80116968D919C9106
:1014E0001797019617969C938E931697CE01DF91CE
:1014F000CF911F910F910895FA01AA27283051F139
:10150000203181F1E8946F936E7F6E5F7F4F8F4F34
:101510009F4FAF4FB1E03ED0B4E03CD0670F781F93
:10152000891F9A1FA11D680F791F8A1F911DA11D78
:101530006A0F711D811D911DA11D20D009F46894B1
:101540003F912AE0269F11243019305D3193DEF659
:10155000CF010895462F4770405D4193B3E00FD00F
:10156000C9F7F6CF462F4F70405D4A3318F0495DFA
:1015700031FD4052419302D0A9F7EACFB4E0A695DD
:101580009795879577956795BA95C9F700976105FF
:10159000710508959B01AC010A2E06945795479555
:1015A00037952795BA95C9F7620F731F841F951F4A
:1015B000A01D08952F923F924F925F926F927F925B
:1015C0008F929F92AF92BF92CF92DF92EF92FF9253
:1015D0000F931F93CF93DF93CDB7DEB7CA1BDB0BFF
:1015E0000FB6F894DEBF0FBECDBF09942A883988A4
:1015F00048885F846E847D848C849B84AA84B984AB
:10160000C884DF80EE80FD800C811B81AA81B981B6
:10161000CE0FD11D0FB6F894DEBF0FBECDBFED01CA
:061620000895F894FFCFCD
:101626000101CDCC4C3E0000803F03000400256440
:1016360000447265687A61686C3A2000552F6D0027
:0C16460053706565643A006B6D2F6800FE
:040000050080012F47
:00000001FF
